{
  "contractName": "Voting",
  "abi": [
    {
      "constant": true,
      "inputs": [
        {
          "name": "",
          "type": "bytes32"
        }
      ],
      "name": "voted",
      "outputs": [
        {
          "name": "",
          "type": "bool"
        }
      ],
      "payable": false,
      "stateMutability": "view",
      "type": "function"
    },
    {
      "inputs": [],
      "payable": false,
      "stateMutability": "nonpayable",
      "type": "constructor"
    },
    {
      "anonymous": false,
      "inputs": [
        {
          "indexed": false,
          "name": "candidateID",
          "type": "uint256"
        }
      ],
      "name": "AddedCandidate",
      "type": "event"
    },
    {
      "constant": false,
      "inputs": [
        {
          "name": "name",
          "type": "bytes32"
        },
        {
          "name": "party",
          "type": "bytes32"
        }
      ],
      "name": "addCandidate",
      "outputs": [],
      "payable": false,
      "stateMutability": "nonpayable",
      "type": "function"
    },
    {
      "constant": false,
      "inputs": [
        {
          "name": "uid",
          "type": "bytes32"
        },
        {
          "name": "candidateID",
          "type": "uint256"
        }
      ],
      "name": "vote",
      "outputs": [],
      "payable": false,
      "stateMutability": "nonpayable",
      "type": "function"
    },
    {
      "constant": true,
      "inputs": [
        {
          "name": "candidateID",
          "type": "uint256"
        }
      ],
      "name": "totalVotes",
      "outputs": [
        {
          "name": "",
          "type": "uint256"
        }
      ],
      "payable": false,
      "stateMutability": "view",
      "type": "function"
    },
    {
      "constant": true,
      "inputs": [],
      "name": "getNumOfCandidates",
      "outputs": [
        {
          "name": "",
          "type": "uint256"
        }
      ],
      "payable": false,
      "stateMutability": "view",
      "type": "function"
    },
    {
      "constant": true,
      "inputs": [],
      "name": "getNumOfVoters",
      "outputs": [
        {
          "name": "",
          "type": "uint256"
        }
      ],
      "payable": false,
      "stateMutability": "view",
      "type": "function"
    },
    {
      "constant": true,
      "inputs": [
        {
          "name": "candidateID",
          "type": "uint256"
        }
      ],
      "name": "getCandidate",
      "outputs": [
        {
          "name": "",
          "type": "uint256"
        },
        {
          "name": "",
          "type": "bytes32"
        },
        {
          "name": "",
          "type": "bytes32"
        }
      ],
      "payable": false,
      "stateMutability": "view",
      "type": "function"
    }
  ],
  "bytecode": "0x60806040526000805534801561001457600080fd5b5061006e7f53616e64657368204368617461726d616c0000000000000000000000000000007f424a500000000000000000000000000000000000000000000000000000000000610125640100000000026401000000009004565b6100c77f416a6179204b6861706c650000000000000000000000000000000000000000007f436f6e6772657373000000000000000000000000000000000000000000000000610125640100000000026401000000009004565b6101207f4a61796465657020506174696c000000000000000000000000000000000000007f5368697673656e61000000000000000000000000000000000000000000000000610125640100000000026401000000009004565b6101f2565b600080600081548092919060010191905055905060606040519081016040528084600019168152602001836000191681526020016001151581525060026000838152602001908152602001600020600082015181600001906000191690556020820151816001019060001916905560408201518160020160006101000a81548160ff0219169083151502179055509050507fec542c373a064661ffef02d633752debf28f3e6c9f253680822d9ccf8b47aec6816040518082815260200191505060405180910390a1505050565b6104cb806102016000396000f300608060405260043610610083576000357c0100000000000000000000000000000000000000000000000000000000900463ffffffff16806319e6e1581461008857806335b8e820146100c957806365fc783c14610128578063887c4251146101535780639ef1204c1461019c578063a1adbb25146101d7578063e8685ba114610216575b600080fd5b34801561009457600080fd5b506100b360048036038101908080359060200190929190505050610241565b6040518082815260200191505060405180910390f35b3480156100d557600080fd5b506100f460048036038101908080359060200190929190505050610296565b6040518084815260200183600019166000191681526020018260001916600019168152602001935050505060405180910390f35b34801561013457600080fd5b5061013d6102d7565b6040518082815260200191505060405180910390f35b34801561015f57600080fd5b5061018260048036038101908080356000191690602001909291905050506102e1565b604051808215151515815260200191505060405180910390f35b3480156101a857600080fd5b506101d5600480360381019080803560001916906020019092919080359060200190929190505050610301565b005b3480156101e357600080fd5b50610214600480360381019080803560001916906020019092919080356000191690602001909291905050506103c9565b005b34801561022257600080fd5b5061022b610496565b6040518082815260200191505060405180910390f35b6000806000809150600090505b60015481101561028c57836003600083815260200190815260200160002060010154141561027f5781806001019250505b808060010191505061024e565b8192505050919050565b600080600083600260008681526020019081526020016000206000015460026000878152602001908152602001600020600101549250925092509193909250565b6000600154905090565b60046020528060005260406000206000915054906101000a900460ff1681565b6000600115156002600084815260200190815260200160002060020160009054906101000a900460ff16151514156103c4576001600081548092919060010191905055905060408051908101604052808460001916815260200183815250600360008381526020019081526020016000206000820151816000019060001916905560208201518160010155905050600160046000856000191660001916815260200190815260200160002060006101000a81548160ff0219169083151502179055505b505050565b600080600081548092919060010191905055905060606040519081016040528084600019168152602001836000191681526020016001151581525060026000838152602001908152602001600020600082015181600001906000191690556020820151816001019060001916905560408201518160020160006101000a81548160ff0219169083151502179055509050507fec542c373a064661ffef02d633752debf28f3e6c9f253680822d9ccf8b47aec6816040518082815260200191505060405180910390a1505050565b600080549050905600a165627a7a72305820e98946ad179b82876a6e4cad187acfd019ec2966c687dbcb1d274bd1fc6b89a90029",
  "source": "pragma solidity ^0.4.18;\r\n// written for Solidity version 0.4.18 and above that doesnt break functionality\r\n\r\ncontract Voting {\r\n    event AddedCandidate(uint candidateID);\r\n\r\n    // describes a Voter, which has an id and the ID of the candidate they voted for\r\n    struct Voter {\r\n        bytes32 uid; // bytes32 type are basically strings\r\n        uint candidateIDVote;\r\n    }\r\n    // describes a Candidate\r\n    struct Candidate {\r\n        bytes32 name;\r\n        bytes32 party; \r\n        bool doesExist; \r\n    }\r\n\r\n    // These state variables are used keep track of the number of Candidates/Voters and used to as a way to index them     \r\n    uint numCandidates = 0; // declares a state variable - number Of Candidates\r\n    uint numVoters;\r\n\r\n    \r\n    // Think of these as a hash table\r\n    mapping (uint => Candidate) candidates;\r\n    mapping (uint => Voter) voters;\r\n    mapping (bytes32 => bool) public voted;\r\n    \r\n    constructor() public {\r\n        addCandidate(\"Sandesh Chatarmal\",\"BJP\");\r\n        addCandidate(\"Ajay Khaple\",\"Congress\");\r\n        addCandidate(\"Jaydeep Patil\",\"Shivsena\");\r\n    }\r\n    function addCandidate(bytes32 name, bytes32 party) public {\r\n        uint candidateID = numCandidates++;\r\n        // Create new Candidate Struct with name and saves it to storage.\r\n        candidates[candidateID] = Candidate(name,party,true);\r\n        AddedCandidate(candidateID);\r\n    }\r\n\r\n    function vote(bytes32 uid, uint candidateID) public {\r\n\r\n        if (candidates[candidateID].doesExist == true) {\r\n            uint voterID = numVoters++; //voterID is the return variable\r\n            voters[voterID] = Voter(uid,candidateID);\r\n            voted[uid] = true;\r\n        }\r\n    }\r\n    \r\n\r\n    // finds the total amount of votes for a specific candidate by looping through voters \r\n    function totalVotes(uint candidateID) view public returns (uint) {\r\n        uint numOfVotes = 0; // we will return this\r\n        for (uint i = 0; i < numVoters; i++) {\r\n            if (voters[i].candidateIDVote == candidateID) {\r\n                numOfVotes++;\r\n            }\r\n        }\r\n        return numOfVotes; \r\n    }\r\n\r\n    function getNumOfCandidates() public view returns(uint) {\r\n        return numCandidates;\r\n    }\r\n\r\n    function getNumOfVoters() public view returns(uint) {\r\n        return numVoters;\r\n    }\r\n    function getCandidate(uint candidateID) public view returns (uint,bytes32, bytes32) {\r\n        return (candidateID,candidates[candidateID].name,candidates[candidateID].party);\r\n    }\r\n}",
  "sourcePath": "F:\\Academics\\SEM7\\pro\\election\\contracts\\Voters.sol",
  "compiler": {
    "name": "solc",
    "version": "0.4.24+commit.e67f0147.Emscripten.clang"
  },
  "schemaVersion": "2.0.1",
  "updatedAt": "2018-12-04T04:48:53.019Z"
}